11111-22222-33333-44444Muffler       A-101231BP456xxxxxCM 003CHRTownCxxxxx2015xxxxxxxxxxxxxx23456xxxxxSSubContractor  005332010010111234 West Main Order Dept.                   Any Town       AL359949999921234 West Main Sched Dept.    Attn: Mary     Any Town       AL359949999931234 West Main Remit Dept.    Attn: Bob      Any Town       AL3599499999000001TUR00000010000022952020072520200910000002TUR00000020000015482020072620200903000003TUR00000010001023452020072820201012
11111-33333-33333-55555Brake Pads    A-101231BP458xxxxxCM 001GM GMC  xxxxx2017xxxxxxxxxxxxxx36981xxxxxDDistributor    0022120150507194 Grove Ave.  Main Office    Attn: Chris    My  Town       AL3599499999294 Grove Ave.  Main Office    Attn: Ted      My  Town       AL3599499999394 Grove Ave.  Main Office    Attn: Susan    My  Town       AL3599499999001025TUR00001000000022952020061320200710001036TUR00002250000015482020072620200803001068TUR00010000000001452020082820201012
11111-44444-33333-66666Brake Disc    A-101231BP459xxxxxCM 002VW TourExxxxx2008xxxxxxxxxxxxxx78912xxxxxMManufacturer   003112018060717986 Maple ST.                Attn: Mike     My  City       AL359949999927986 Maple ST.                Attn: Mary     My  City       AL359949999937986 Maple ST.                Attn: Matt     My  City       AL3599499999009887URB00000100000322952020051220200623010145URB00002000000126232020060520200715020067URB00010000000001992020070520200901
11111-55555-33333-77777Headlight     A-101231BP460xxxxxCM 002VW TourExxxxx2008xxxxxxxxxxxxxx78913xxxxxIManufacturer   003112018060717986 Maple ST.                Attn: Remy     My  City       AL359949999927986 Maple ST.                Attn: Mary     My  City       AL359949999937986 Maple ST.                Attn: Matt     My  City       AL3599499999009887URB00000100000322952020051220200623010145URB00002000000126232020060520200715020067URB00010000000001992020070520200901
11111-66666-33333-88888Mirror        A-101231BP461xxxxxCM 002VW TourExxxxx2008xxxxxxxxxxxxxx78914xxxxxMManufacturer   003112018060717986 Maple ST.                Attn: Pam      My  City       AL359949999927986 Maple ST.                Attn: Mary     My  City       AL359949999937986 Maple ST.                Attn: Matt     My  City       AL3599499999009887URB00000100000322952020051220200623010145URB00002000000126232020060520200715020067URB00010000000001992020070520200901
11111-77777-33333-88888Window        A-101231BP462xxxxxCM 002VW TourExxxxx2008xxxxxxxxxxxxxx78915xxxxxMManufacturer   003112018060717986 Maple ST.                Attn: Owen     My  City       AL359949999927986 Maple ST.                Attn: Mary     My  City       AL359949999937986 Maple ST.                Attn: Matt     My  City       AL3599499999009887URB00000100000322952020051220200623010145URB00002000000126232020060520200715020067URB00010000000001992020070520200901
11111-88888-33333-77777Tire          +-x*   1BP460xxxxxCM 002VW TourExxxxx2008xxxxxxxxxxxxxx78913xxxxxIManufacturer   003112018060717986 Maple ST.                Attn: Remy     My  City       AL359949999927986 Maple ST.                Attn: Mary     My  City       AL359949999937986 Maple ST.                Attn: Matt     My  City       AL3599499999009887URB00000100000322952020051220200623010145URB00002000000126232020060520200715020067URB00010000000001992020070520200901
11111-99999-33333-88888Hood          A-10123%BP461xxxxxCM 002VW TourExxxxx2008xxxxxxxxxxxxxx78914xxxxxMManufacturer   003112018060717986 Maple ST.                Attn: Pam      My  City       AL359949999927986 Maple ST.                Attn: Mary     My  City       AL359949999937986 Maple ST.                Attn: Matt     My  City       AL3599499999009887URB00000100000322952020051220200623010145URB00002000000126232020060520200715020067URB00010000000001992020070520200901
11111-00000-33333-88888Bumper        A-101231??????????CM 002VW TourExxxxx2008xxxxxxxxxxxxxx78915xxxxxMManufacturer   003112018060717986 Maple ST.                Attn: Owen     My  City       AL359949999927986 Maple ST.                Attn: Mary     My  City       AL359949999937986 Maple ST.                Attn: Matt     My  City       AL3599499999009887URB00000100000322952020051220200623010145URB00002000000126232020060520200715020067URB00010000000001992020070520200901
11111-00001-33333-88888Front clip    A-101231BP462xxxxxNIL002VW TourExxxxx2008xxxxxxxxxxxxxx78915xxxxxMManufacturer   003112018060717986 Maple ST.                Attn: Owen     My  City       AL359949999927986 Maple ST.                Attn: Mary     My  City       AL359949999937986 Maple ST.                Attn: Matt     My  City       AL3599499999009887URB00000100000322952020051220200623010145URB00002000000126232020060520200715020067URB00010000000001992020070520200901
11111-00002-33333-88888Grille        A-101231BP462xxxxxCM 002VW TourExxxxx9908xxxxxxxxxxxxxx78915xxxxxMManufacturer   003112018060717986 Maple ST.                Attn: Owen     My  City       AL359949999927986 Maple ST.                Attn: Mary     My  City       AL359949999937986 Maple ST.                Attn: Matt     My  City       AL3599499999009887URB00000100000322952020051220200623010145URB00002000000126232020060520200715020067URB00010000000001992020070520200901
11111-00003-33333-88888Piller        A-101231BP462xxxxxCM 002GM TourExxxxx2008xxxxxxxxxxxxxx78915xxxxxMManufacturer   003112018060717986 Maple ST.                Attn: Owen     My  City       AL359949999927986 Maple ST.                Attn: Mary     My  City       AL359949999937986 Maple ST.                Attn: Matt     My  City       AL3599499999009887URB00000100000322952020051220200623010145URB00002000000126232020060520200715020067URB00010000000001992020070520200901
11111-00003-33333-88888Piller        A-101231BP462xxxxxCM 002VW TourExxxxx2018xxxxxxxxxxxxxx78915xxxxxMManufacturer   003112018060717986 Maple ST.                Attn: Owen     My  City       AL359949999927986 Maple ST.                Attn: Mary     My  City       AL359949999937986 Maple ST.                Attn: Matt     My  City       AL3599499999009887URB00000100000322952020051220200623010145URB00002000000126232020060520200715020067URB00010000000001992020070520200901
